{
  "_format": "hh-sol-artifact-1",
  "contractName": "NFTTicket",
  "sourceName": "contracts/NFTTicket.sol",
  "abi": [
    {
      "inputs": [
        {
          "internalType": "string",
          "name": "_base",
          "type": "string"
        }
      ],
      "stateMutability": "nonpayable",
      "type": "constructor"
    },
    {
      "inputs": [],
      "name": "AccessControlBadConfirmation",
      "type": "error"
    },
    {
      "inputs": [
        {
          "internalType": "address",
          "name": "account",
          "type": "address"
        },
        {
          "internalType": "bytes32",
          "name": "neededRole",
          "type": "bytes32"
        }
      ],
      "name": "AccessControlUnauthorizedAccount",
      "type": "error"
    },
    {
      "inputs": [
        {
          "internalType": "address",
          "name": "sender",
          "type": "address"
        },
        {
          "internalType": "uint256",
          "name": "tokenId",
          "type": "uint256"
        },
        {
          "internalType": "address",
          "name": "owner",
          "type": "address"
        }
      ],
      "name": "ERC721IncorrectOwner",
      "type": "error"
    },
    {
      "inputs": [
        {
          "internalType": "address",
          "name": "operator",
          "type": "address"
        },
        {
          "internalType": "uint256",
          "name": "tokenId",
          "type": "uint256"
        }
      ],
      "name": "ERC721InsufficientApproval",
      "type": "error"
    },
    {
      "inputs": [
        {
          "internalType": "address",
          "name": "approver",
          "type": "address"
        }
      ],
      "name": "ERC721InvalidApprover",
      "type": "error"
    },
    {
      "inputs": [
        {
          "internalType": "address",
          "name": "operator",
          "type": "address"
        }
      ],
      "name": "ERC721InvalidOperator",
      "type": "error"
    },
    {
      "inputs": [
        {
          "internalType": "address",
          "name": "owner",
          "type": "address"
        }
      ],
      "name": "ERC721InvalidOwner",
      "type": "error"
    },
    {
      "inputs": [
        {
          "internalType": "address",
          "name": "receiver",
          "type": "address"
        }
      ],
      "name": "ERC721InvalidReceiver",
      "type": "error"
    },
    {
      "inputs": [
        {
          "internalType": "address",
          "name": "sender",
          "type": "address"
        }
      ],
      "name": "ERC721InvalidSender",
      "type": "error"
    },
    {
      "inputs": [
        {
          "internalType": "uint256",
          "name": "tokenId",
          "type": "uint256"
        }
      ],
      "name": "ERC721NonexistentToken",
      "type": "error"
    },
    {
      "inputs": [],
      "name": "EnforcedPause",
      "type": "error"
    },
    {
      "inputs": [],
      "name": "ExpectedPause",
      "type": "error"
    },
    {
      "anonymous": false,
      "inputs": [
        {
          "indexed": true,
          "internalType": "address",
          "name": "owner",
          "type": "address"
        },
        {
          "indexed": true,
          "internalType": "address",
          "name": "approved",
          "type": "address"
        },
        {
          "indexed": true,
          "internalType": "uint256",
          "name": "tokenId",
          "type": "uint256"
        }
      ],
      "name": "Approval",
      "type": "event"
    },
    {
      "anonymous": false,
      "inputs": [
        {
          "indexed": true,
          "internalType": "address",
          "name": "owner",
          "type": "address"
        },
        {
          "indexed": true,
          "internalType": "address",
          "name": "operator",
          "type": "address"
        },
        {
          "indexed": false,
          "internalType": "bool",
          "name": "approved",
          "type": "bool"
        }
      ],
      "name": "ApprovalForAll",
      "type": "event"
    },
    {
      "anonymous": false,
      "inputs": [
        {
          "indexed": false,
          "internalType": "uint256",
          "name": "_fromTokenId",
          "type": "uint256"
        },
        {
          "indexed": false,
          "internalType": "uint256",
          "name": "_toTokenId",
          "type": "uint256"
        }
      ],
      "name": "BatchMetadataUpdate",
      "type": "event"
    },
    {
      "anonymous": false,
      "inputs": [
        {
          "indexed": false,
          "internalType": "uint256",
          "name": "_tokenId",
          "type": "uint256"
        }
      ],
      "name": "MetadataUpdate",
      "type": "event"
    },
    {
      "anonymous": false,
      "inputs": [
        {
          "indexed": false,
          "internalType": "address",
          "name": "account",
          "type": "address"
        }
      ],
      "name": "Paused",
      "type": "event"
    },
    {
      "anonymous": false,
      "inputs": [
        {
          "indexed": true,
          "internalType": "bytes32",
          "name": "role",
          "type": "bytes32"
        },
        {
          "indexed": true,
          "internalType": "bytes32",
          "name": "previousAdminRole",
          "type": "bytes32"
        },
        {
          "indexed": true,
          "internalType": "bytes32",
          "name": "newAdminRole",
          "type": "bytes32"
        }
      ],
      "name": "RoleAdminChanged",
      "type": "event"
    },
    {
      "anonymous": false,
      "inputs": [
        {
          "indexed": true,
          "internalType": "bytes32",
          "name": "role",
          "type": "bytes32"
        },
        {
          "indexed": true,
          "internalType": "address",
          "name": "account",
          "type": "address"
        },
        {
          "indexed": true,
          "internalType": "address",
          "name": "sender",
          "type": "address"
        }
      ],
      "name": "RoleGranted",
      "type": "event"
    },
    {
      "anonymous": false,
      "inputs": [
        {
          "indexed": true,
          "internalType": "bytes32",
          "name": "role",
          "type": "bytes32"
        },
        {
          "indexed": true,
          "internalType": "address",
          "name": "account",
          "type": "address"
        },
        {
          "indexed": true,
          "internalType": "address",
          "name": "sender",
          "type": "address"
        }
      ],
      "name": "RoleRevoked",
      "type": "event"
    },
    {
      "anonymous": false,
      "inputs": [
        {
          "indexed": true,
          "internalType": "address",
          "name": "from",
          "type": "address"
        },
        {
          "indexed": true,
          "internalType": "address",
          "name": "to",
          "type": "address"
        },
        {
          "indexed": true,
          "internalType": "uint256",
          "name": "tokenId",
          "type": "uint256"
        }
      ],
      "name": "Transfer",
      "type": "event"
    },
    {
      "anonymous": false,
      "inputs": [
        {
          "indexed": false,
          "internalType": "address",
          "name": "account",
          "type": "address"
        }
      ],
      "name": "Unpaused",
      "type": "event"
    },
    {
      "inputs": [],
      "name": "DEFAULT_ADMIN_ROLE",
      "outputs": [
        {
          "internalType": "bytes32",
          "name": "",
          "type": "bytes32"
        }
      ],
      "stateMutability": "view",
      "type": "function"
    },
    {
      "inputs": [],
      "name": "ORGANIZER_ROLE",
      "outputs": [
        {
          "internalType": "bytes32",
          "name": "",
          "type": "bytes32"
        }
      ],
      "stateMutability": "view",
      "type": "function"
    },
    {
      "inputs": [],
      "name": "VALIDATOR_ROLE",
      "outputs": [
        {
          "internalType": "bytes32",
          "name": "",
          "type": "bytes32"
        }
      ],
      "stateMutability": "view",
      "type": "function"
    },
    {
      "inputs": [
        {
          "internalType": "address",
          "name": "to",
          "type": "address"
        },
        {
          "internalType": "uint256",
          "name": "tokenId",
          "type": "uint256"
        }
      ],
      "name": "approve",
      "outputs": [],
      "stateMutability": "nonpayable",
      "type": "function"
    },
    {
      "inputs": [
        {
          "internalType": "address",
          "name": "owner",
          "type": "address"
        }
      ],
      "name": "balanceOf",
      "outputs": [
        {
          "internalType": "uint256",
          "name": "",
          "type": "uint256"
        }
      ],
      "stateMutability": "view",
      "type": "function"
    },
    {
      "inputs": [
        {
          "internalType": "uint256",
          "name": "tokenId",
          "type": "uint256"
        }
      ],
      "name": "getApproved",
      "outputs": [
        {
          "internalType": "address",
          "name": "",
          "type": "address"
        }
      ],
      "stateMutability": "view",
      "type": "function"
    },
    {
      "inputs": [
        {
          "internalType": "bytes32",
          "name": "role",
          "type": "bytes32"
        }
      ],
      "name": "getRoleAdmin",
      "outputs": [
        {
          "internalType": "bytes32",
          "name": "",
          "type": "bytes32"
        }
      ],
      "stateMutability": "view",
      "type": "function"
    },
    {
      "inputs": [
        {
          "internalType": "bytes32",
          "name": "role",
          "type": "bytes32"
        },
        {
          "internalType": "address",
          "name": "account",
          "type": "address"
        }
      ],
      "name": "grantRole",
      "outputs": [],
      "stateMutability": "nonpayable",
      "type": "function"
    },
    {
      "inputs": [
        {
          "internalType": "bytes32",
          "name": "role",
          "type": "bytes32"
        },
        {
          "internalType": "address",
          "name": "account",
          "type": "address"
        }
      ],
      "name": "hasRole",
      "outputs": [
        {
          "internalType": "bool",
          "name": "",
          "type": "bool"
        }
      ],
      "stateMutability": "view",
      "type": "function"
    },
    {
      "inputs": [
        {
          "internalType": "address",
          "name": "owner",
          "type": "address"
        },
        {
          "internalType": "address",
          "name": "operator",
          "type": "address"
        }
      ],
      "name": "isApprovedForAll",
      "outputs": [
        {
          "internalType": "bool",
          "name": "",
          "type": "bool"
        }
      ],
      "stateMutability": "view",
      "type": "function"
    },
    {
      "inputs": [],
      "name": "name",
      "outputs": [
        {
          "internalType": "string",
          "name": "",
          "type": "string"
        }
      ],
      "stateMutability": "view",
      "type": "function"
    },
    {
      "inputs": [
        {
          "internalType": "uint256",
          "name": "tokenId",
          "type": "uint256"
        }
      ],
      "name": "ownerOf",
      "outputs": [
        {
          "internalType": "address",
          "name": "",
          "type": "address"
        }
      ],
      "stateMutability": "view",
      "type": "function"
    },
    {
      "inputs": [],
      "name": "paused",
      "outputs": [
        {
          "internalType": "bool",
          "name": "",
          "type": "bool"
        }
      ],
      "stateMutability": "view",
      "type": "function"
    },
    {
      "inputs": [
        {
          "internalType": "bytes32",
          "name": "role",
          "type": "bytes32"
        },
        {
          "internalType": "address",
          "name": "callerConfirmation",
          "type": "address"
        }
      ],
      "name": "renounceRole",
      "outputs": [],
      "stateMutability": "nonpayable",
      "type": "function"
    },
    {
      "inputs": [
        {
          "internalType": "bytes32",
          "name": "role",
          "type": "bytes32"
        },
        {
          "internalType": "address",
          "name": "account",
          "type": "address"
        }
      ],
      "name": "revokeRole",
      "outputs": [],
      "stateMutability": "nonpayable",
      "type": "function"
    },
    {
      "inputs": [
        {
          "internalType": "address",
          "name": "from",
          "type": "address"
        },
        {
          "internalType": "address",
          "name": "to",
          "type": "address"
        },
        {
          "internalType": "uint256",
          "name": "tokenId",
          "type": "uint256"
        }
      ],
      "name": "safeTransferFrom",
      "outputs": [],
      "stateMutability": "nonpayable",
      "type": "function"
    },
    {
      "inputs": [
        {
          "internalType": "address",
          "name": "from",
          "type": "address"
        },
        {
          "internalType": "address",
          "name": "to",
          "type": "address"
        },
        {
          "internalType": "uint256",
          "name": "tokenId",
          "type": "uint256"
        },
        {
          "internalType": "bytes",
          "name": "data",
          "type": "bytes"
        }
      ],
      "name": "safeTransferFrom",
      "outputs": [],
      "stateMutability": "nonpayable",
      "type": "function"
    },
    {
      "inputs": [
        {
          "internalType": "address",
          "name": "operator",
          "type": "address"
        },
        {
          "internalType": "bool",
          "name": "approved",
          "type": "bool"
        }
      ],
      "name": "setApprovalForAll",
      "outputs": [],
      "stateMutability": "nonpayable",
      "type": "function"
    },
    {
      "inputs": [
        {
          "internalType": "bytes4",
          "name": "interfaceId",
          "type": "bytes4"
        }
      ],
      "name": "supportsInterface",
      "outputs": [
        {
          "internalType": "bool",
          "name": "",
          "type": "bool"
        }
      ],
      "stateMutability": "view",
      "type": "function"
    },
    {
      "inputs": [],
      "name": "symbol",
      "outputs": [
        {
          "internalType": "string",
          "name": "",
          "type": "string"
        }
      ],
      "stateMutability": "view",
      "type": "function"
    },
    {
      "inputs": [
        {
          "internalType": "uint256",
          "name": "tokenId",
          "type": "uint256"
        }
      ],
      "name": "tokenURI",
      "outputs": [
        {
          "internalType": "string",
          "name": "",
          "type": "string"
        }
      ],
      "stateMutability": "view",
      "type": "function"
    },
    {
      "inputs": [
        {
          "internalType": "address",
          "name": "from",
          "type": "address"
        },
        {
          "internalType": "address",
          "name": "to",
          "type": "address"
        },
        {
          "internalType": "uint256",
          "name": "tokenId",
          "type": "uint256"
        }
      ],
      "name": "transferFrom",
      "outputs": [],
      "stateMutability": "nonpayable",
      "type": "function"
    }
  ],
  "bytecode": "0x60806040523480156200001157600080fd5b5060405162002cc338038062002cc3833981810160405281019062000037919062000423565b6040518060400160405280600e81526020017f556e694576656e745469636b65740000000000000000000000000000000000008152506040518060400160405280600381526020017f55455400000000000000000000000000000000000000000000000000000000008152508160009081620000b49190620006bf565b508060019081620000c69190620006bf565b505050620000de6000801b336200011960201b60201c565b50620001117f4d2e7a1e3f5dd6e203f087b15756ccf0e4ccd947fe1b639a38540089a1e47f63336200011960201b60201c565b5050620007a6565b60006200012d83836200021d60201b60201c565b620002125760016007600085815260200190815260200160002060000160008473ffffffffffffffffffffffffffffffffffffffff1673ffffffffffffffffffffffffffffffffffffffff16815260200190815260200160002060006101000a81548160ff021916908315150217905550620001ae6200028860201b60201c565b73ffffffffffffffffffffffffffffffffffffffff168273ffffffffffffffffffffffffffffffffffffffff16847f2f8788117e7eff1d82e926ec794901d17c78024a50270940304540a733656f0d60405160405180910390a46001905062000217565b600090505b92915050565b60006007600084815260200190815260200160002060000160008373ffffffffffffffffffffffffffffffffffffffff1673ffffffffffffffffffffffffffffffffffffffff16815260200190815260200160002060009054906101000a900460ff16905092915050565b600033905090565b6000604051905090565b600080fd5b600080fd5b600080fd5b600080fd5b6000601f19601f8301169050919050565b7f4e487b7100000000000000000000000000000000000000000000000000000000600052604160045260246000fd5b620002f982620002ae565b810181811067ffffffffffffffff821117156200031b576200031a620002bf565b5b80604052505050565b60006200033062000290565b90506200033e8282620002ee565b919050565b600067ffffffffffffffff821115620003615762000360620002bf565b5b6200036c82620002ae565b9050602081019050919050565b60005b83811015620003995780820151818401526020810190506200037c565b60008484015250505050565b6000620003bc620003b68462000343565b62000324565b905082815260208101848484011115620003db57620003da620002a9565b5b620003e884828562000379565b509392505050565b600082601f830112620004085762000407620002a4565b5b81516200041a848260208601620003a5565b91505092915050565b6000602082840312156200043c576200043b6200029a565b5b600082015167ffffffffffffffff8111156200045d576200045c6200029f565b5b6200046b84828501620003f0565b91505092915050565b600081519050919050565b7f4e487b7100000000000000000000000000000000000000000000000000000000600052602260045260246000fd5b60006002820490506001821680620004c757607f821691505b602082108103620004dd57620004dc6200047f565b5b50919050565b60008190508160005260206000209050919050565b60006020601f8301049050919050565b600082821b905092915050565b600060088302620005477fffffffffffffffffffffffffffffffffffffffffffffffffffffffffffffffff8262000508565b62000553868362000508565b95508019841693508086168417925050509392505050565b6000819050919050565b6000819050919050565b6000620005a06200059a62000594846200056b565b62000575565b6200056b565b9050919050565b6000819050919050565b620005bc836200057f565b620005d4620005cb82620005a7565b84845462000515565b825550505050565b600090565b620005eb620005dc565b620005f8818484620005b1565b505050565b5b81811015620006205762000614600082620005e1565b600181019050620005fe565b5050565b601f8211156200066f576200063981620004e3565b6200064484620004f8565b8101602085101562000654578190505b6200066c6200066385620004f8565b830182620005fd565b50505b505050565b600082821c905092915050565b6000620006946000198460080262000674565b1980831691505092915050565b6000620006af838362000681565b9150826002028217905092915050565b620006ca8262000474565b67ffffffffffffffff811115620006e657620006e5620002bf565b5b620006f28254620004ae565b620006ff82828562000624565b600060209050601f83116001811462000737576000841562000722578287015190505b6200072e8582620006a1565b8655506200079e565b601f1984166200074786620004e3565b60005b8281101562000771578489015182556001820191506020850194506020810190506200074a565b868310156200079157848901516200078d601f89168262000681565b8355505b6001600288020188555050505b505050505050565b61250d80620007b66000396000f3fe608060405234801561001057600080fd5b50600436106101425760003560e01c806370a08231116100b8578063a22cb4651161007c578063a22cb46514610389578063b88d4fde146103a5578063c49baebe146103c1578063c87b56dd146103df578063d547741f1461040f578063e985e9c51461042b57610142565b806370a08231146102cf5780637909cb59146102ff57806391d148541461031d57806395d89b411461034d578063a217fddf1461036b57610142565b8063248a9ca31161010a578063248a9ca3146101fd5780632f2ff15d1461022d57806336568abe1461024957806342842e0e146102655780635c975abb146102815780636352211e1461029f57610142565b806301ffc9a71461014757806306fdde0314610177578063081812fc14610195578063095ea7b3146101c557806323b872dd146101e1575b600080fd5b610161600480360381019061015c9190611c61565b61045b565b60405161016e9190611ca9565b60405180910390f35b61017f61046d565b60405161018c9190611d54565b60405180910390f35b6101af60048036038101906101aa9190611dac565b6104ff565b6040516101bc9190611e1a565b60405180910390f35b6101df60048036038101906101da9190611e61565b61051b565b005b6101fb60048036038101906101f69190611ea1565b610531565b005b61021760048036038101906102129190611f2a565b610633565b6040516102249190611f66565b60405180910390f35b61024760048036038101906102429190611f81565b610653565b005b610263600480360381019061025e9190611f81565b610675565b005b61027f600480360381019061027a9190611ea1565b6106f0565b005b610289610710565b6040516102969190611ca9565b60405180910390f35b6102b960048036038101906102b49190611dac565b610727565b6040516102c69190611e1a565b60405180910390f35b6102e960048036038101906102e49190611fc1565b610739565b6040516102f69190611ffd565b60405180910390f35b6103076107f3565b6040516103149190611f66565b60405180910390f35b61033760048036038101906103329190611f81565b610817565b6040516103449190611ca9565b60405180910390f35b610355610882565b6040516103629190611d54565b60405180910390f35b610373610914565b6040516103809190611f66565b60405180910390f35b6103a3600480360381019061039e9190612044565b61091b565b005b6103bf60048036038101906103ba91906121b9565b610931565b005b6103c9610956565b6040516103d69190611f66565b60405180910390f35b6103f960048036038101906103f49190611dac565b61097a565b6040516104069190611d54565b60405180910390f35b61042960048036038101906104249190611f81565b610a8d565b005b6104456004803603810190610440919061223c565b610aaf565b6040516104529190611ca9565b60405180910390f35b600061046682610b43565b9050919050565b60606000805461047c906122ab565b80601f01602080910402602001604051908101604052809291908181526020018280546104a8906122ab565b80156104f55780601f106104ca576101008083540402835291602001916104f5565b820191906000526020600020905b8154815290600101906020018083116104d857829003601f168201915b5050505050905090565b600061050a82610bbd565b5061051482610c45565b9050919050565b61052d8282610528610c82565b610c8a565b5050565b600073ffffffffffffffffffffffffffffffffffffffff168273ffffffffffffffffffffffffffffffffffffffff16036105a35760006040517f64a0ae9200000000000000000000000000000000000000000000000000000000815260040161059a9190611e1a565b60405180910390fd5b60006105b783836105b2610c82565b610c9c565b90508373ffffffffffffffffffffffffffffffffffffffff168173ffffffffffffffffffffffffffffffffffffffff161461062d578382826040517f64283d7b000000000000000000000000000000000000000000000000000000008152600401610624939291906122dc565b60405180910390fd5b50505050565b600060076000838152602001908152602001600020600101549050919050565b61065c82610633565b61066581610eb6565b61066f8383610eca565b50505050565b61067d610c82565b73ffffffffffffffffffffffffffffffffffffffff168173ffffffffffffffffffffffffffffffffffffffff16146106e1576040517f6697b23200000000000000000000000000000000000000000000000000000000815260040160405180910390fd5b6106eb8282610fbc565b505050565b61070b83838360405180602001604052806000815250610931565b505050565b6000600860009054906101000a900460ff16905090565b600061073282610bbd565b9050919050565b60008073ffffffffffffffffffffffffffffffffffffffff168273ffffffffffffffffffffffffffffffffffffffff16036107ac5760006040517f89c62b640000000000000000000000000000000000000000000000000000000081526004016107a39190611e1a565b60405180910390fd5b600360008373ffffffffffffffffffffffffffffffffffffffff1673ffffffffffffffffffffffffffffffffffffffff168152602001908152602001600020549050919050565b7f4d2e7a1e3f5dd6e203f087b15756ccf0e4ccd947fe1b639a38540089a1e47f6381565b60006007600084815260200190815260200160002060000160008373ffffffffffffffffffffffffffffffffffffffff1673ffffffffffffffffffffffffffffffffffffffff16815260200190815260200160002060009054906101000a900460ff16905092915050565b606060018054610891906122ab565b80601f01602080910402602001604051908101604052809291908181526020018280546108bd906122ab565b801561090a5780601f106108df5761010080835404028352916020019161090a565b820191906000526020600020905b8154815290600101906020018083116108ed57829003601f168201915b5050505050905090565b6000801b81565b61092d610926610c82565b83836110af565b5050565b61093c848484610531565b610950610947610c82565b8585858561121e565b50505050565b7f21702c8af46127c7fa207f89d0b0a8441bb32959a0ac7df790e9ab1a25c9892681565b606061098582610bbd565b5060006006600084815260200190815260200160002080546109a6906122ab565b80601f01602080910402602001604051908101604052809291908181526020018280546109d2906122ab565b8015610a1f5780601f106109f457610100808354040283529160200191610a1f565b820191906000526020600020905b815481529060010190602001808311610a0257829003601f168201915b505050505090506000610a306113cf565b90506000815103610a45578192505050610a88565b600082511115610a7a578082604051602001610a6292919061234f565b60405160208183030381529060405292505050610a88565b610a83846113e6565b925050505b919050565b610a9682610633565b610a9f81610eb6565b610aa98383610fbc565b50505050565b6000600560008473ffffffffffffffffffffffffffffffffffffffff1673ffffffffffffffffffffffffffffffffffffffff16815260200190815260200160002060008373ffffffffffffffffffffffffffffffffffffffff1673ffffffffffffffffffffffffffffffffffffffff16815260200190815260200160002060009054906101000a900460ff16905092915050565b60007f7965db0b000000000000000000000000000000000000000000000000000000007bffffffffffffffffffffffffffffffffffffffffffffffffffffffff1916827bffffffffffffffffffffffffffffffffffffffffffffffffffffffff19161480610bb65750610bb58261144f565b5b9050919050565b600080610bc9836114b0565b9050600073ffffffffffffffffffffffffffffffffffffffff168173ffffffffffffffffffffffffffffffffffffffff1603610c3c57826040517f7e273289000000000000000000000000000000000000000000000000000000008152600401610c339190611ffd565b60405180910390fd5b80915050919050565b60006004600083815260200190815260200160002060009054906101000a900473ffffffffffffffffffffffffffffffffffffffff169050919050565b600033905090565b610c9783838360016114ed565b505050565b600080610ca8846114b0565b9050600073ffffffffffffffffffffffffffffffffffffffff168373ffffffffffffffffffffffffffffffffffffffff1614610cea57610ce98184866116b2565b5b600073ffffffffffffffffffffffffffffffffffffffff168173ffffffffffffffffffffffffffffffffffffffff1614610d7b57610d2c6000856000806114ed565b6001600360008373ffffffffffffffffffffffffffffffffffffffff1673ffffffffffffffffffffffffffffffffffffffff168152602001908152602001600020600082825403925050819055505b600073ffffffffffffffffffffffffffffffffffffffff168573ffffffffffffffffffffffffffffffffffffffff1614610dfe576001600360008773ffffffffffffffffffffffffffffffffffffffff1673ffffffffffffffffffffffffffffffffffffffff168152602001908152602001600020600082825401925050819055505b846002600086815260200190815260200160002060006101000a81548173ffffffffffffffffffffffffffffffffffffffff021916908373ffffffffffffffffffffffffffffffffffffffff160217905550838573ffffffffffffffffffffffffffffffffffffffff168273ffffffffffffffffffffffffffffffffffffffff167fddf252ad1be2c89b69c2b068fc378daa952ba7f163c4a11628f55a4df523b3ef60405160405180910390a4809150509392505050565b610ec781610ec2610c82565b611776565b50565b6000610ed68383610817565b610fb15760016007600085815260200190815260200160002060000160008473ffffffffffffffffffffffffffffffffffffffff1673ffffffffffffffffffffffffffffffffffffffff16815260200190815260200160002060006101000a81548160ff021916908315150217905550610f4e610c82565b73ffffffffffffffffffffffffffffffffffffffff168273ffffffffffffffffffffffffffffffffffffffff16847f2f8788117e7eff1d82e926ec794901d17c78024a50270940304540a733656f0d60405160405180910390a460019050610fb6565b600090505b92915050565b6000610fc88383610817565b156110a45760006007600085815260200190815260200160002060000160008473ffffffffffffffffffffffffffffffffffffffff1673ffffffffffffffffffffffffffffffffffffffff16815260200190815260200160002060006101000a81548160ff021916908315150217905550611041610c82565b73ffffffffffffffffffffffffffffffffffffffff168273ffffffffffffffffffffffffffffffffffffffff16847ff6391f5c32d9c69d2a47ea670b442974b53935d1edc7fd64eb21e047a839171b60405160405180910390a4600190506110a9565b600090505b92915050565b600073ffffffffffffffffffffffffffffffffffffffff168273ffffffffffffffffffffffffffffffffffffffff160361112057816040517f5b08ba180000000000000000000000000000000000000000000000000000000081526004016111179190611e1a565b60405180910390fd5b80600560008573ffffffffffffffffffffffffffffffffffffffff1673ffffffffffffffffffffffffffffffffffffffff16815260200190815260200160002060008473ffffffffffffffffffffffffffffffffffffffff1673ffffffffffffffffffffffffffffffffffffffff16815260200190815260200160002060006101000a81548160ff0219169083151502179055508173ffffffffffffffffffffffffffffffffffffffff168373ffffffffffffffffffffffffffffffffffffffff167f17307eab39ab6107e8899845ad3d59bd9653f200f220920489ca2b5937696c31836040516112119190611ca9565b60405180910390a3505050565b60008373ffffffffffffffffffffffffffffffffffffffff163b11156113c8578273ffffffffffffffffffffffffffffffffffffffff1663150b7a02868685856040518563ffffffff1660e01b815260040161127d94939291906123c8565b6020604051808303816000875af19250505080156112b957506040513d601f19601f820116820180604052508101906112b69190612429565b60015b61133d573d80600081146112e9576040519150601f19603f3d011682016040523d82523d6000602084013e6112ee565b606091505b50600081510361133557836040517f64a0ae9200000000000000000000000000000000000000000000000000000000815260040161132c9190611e1a565b60405180910390fd5b805160208201fd5b63150b7a0260e01b7bffffffffffffffffffffffffffffffffffffffffffffffffffffffff1916817bffffffffffffffffffffffffffffffffffffffffffffffffffffffff1916146113c657836040517f64a0ae920000000000000000000000000000000000000000000000000000000081526004016113bd9190611e1a565b60405180910390fd5b505b5050505050565b606060405180602001604052806000815250905090565b60606113f182610bbd565b5060006113fc6113cf565b9050600081511161141c5760405180602001604052806000815250611447565b80611426846117c7565b60405160200161143792919061234f565b6040516020818303038152906040525b915050919050565b6000634906490660e01b7bffffffffffffffffffffffffffffffffffffffffffffffffffffffff1916827bffffffffffffffffffffffffffffffffffffffffffffffffffffffff191614806114a957506114a882611895565b5b9050919050565b60006002600083815260200190815260200160002060009054906101000a900473ffffffffffffffffffffffffffffffffffffffff169050919050565b80806115265750600073ffffffffffffffffffffffffffffffffffffffff168273ffffffffffffffffffffffffffffffffffffffff1614155b1561165a57600061153684610bbd565b9050600073ffffffffffffffffffffffffffffffffffffffff168373ffffffffffffffffffffffffffffffffffffffff16141580156115a157508273ffffffffffffffffffffffffffffffffffffffff168173ffffffffffffffffffffffffffffffffffffffff1614155b80156115b457506115b28184610aaf565b155b156115f657826040517fa9fbf51f0000000000000000000000000000000000000000000000000000000081526004016115ed9190611e1a565b60405180910390fd5b811561165857838573ffffffffffffffffffffffffffffffffffffffff168273ffffffffffffffffffffffffffffffffffffffff167f8c5be1e5ebec7d5bd14f71427d1e84f3dd0314c0f7b2291e5b200ac8c7c3b92560405160405180910390a45b505b836004600085815260200190815260200160002060006101000a81548173ffffffffffffffffffffffffffffffffffffffff021916908373ffffffffffffffffffffffffffffffffffffffff16021790555050505050565b6116bd838383611977565b61177157600073ffffffffffffffffffffffffffffffffffffffff168373ffffffffffffffffffffffffffffffffffffffff160361173257806040517f7e2732890000000000000000000000000000000000000000000000000000000081526004016117299190611ffd565b60405180910390fd5b81816040517f177e802f000000000000000000000000000000000000000000000000000000008152600401611768929190612456565b60405180910390fd5b505050565b6117808282610817565b6117c35780826040517fe2517d3f0000000000000000000000000000000000000000000000000000000081526004016117ba92919061247f565b60405180910390fd5b5050565b6060600060016117d684611a38565b01905060008167ffffffffffffffff8111156117f5576117f461208e565b5b6040519080825280601f01601f1916602001820160405280156118275781602001600182028036833780820191505090505b509050600082602083010190505b60011561188a578080600190039150507f3031323334353637383961626364656600000000000000000000000000000000600a86061a8153600a858161187e5761187d6124a8565b5b04945060008503611835575b819350505050919050565b60007f80ac58cd000000000000000000000000000000000000000000000000000000007bffffffffffffffffffffffffffffffffffffffffffffffffffffffff1916827bffffffffffffffffffffffffffffffffffffffffffffffffffffffff1916148061196057507f5b5e139f000000000000000000000000000000000000000000000000000000007bffffffffffffffffffffffffffffffffffffffffffffffffffffffff1916827bffffffffffffffffffffffffffffffffffffffffffffffffffffffff1916145b80611970575061196f82611b8b565b5b9050919050565b60008073ffffffffffffffffffffffffffffffffffffffff168373ffffffffffffffffffffffffffffffffffffffff1614158015611a2f57508273ffffffffffffffffffffffffffffffffffffffff168473ffffffffffffffffffffffffffffffffffffffff1614806119f057506119ef8484610aaf565b5b80611a2e57508273ffffffffffffffffffffffffffffffffffffffff16611a1683610c45565b73ffffffffffffffffffffffffffffffffffffffff16145b5b90509392505050565b600080600090507a184f03e93ff9f4daa797ed6e38ed64bf6a1f0100000000000000008310611a96577a184f03e93ff9f4daa797ed6e38ed64bf6a1f0100000000000000008381611a8c57611a8b6124a8565b5b0492506040810190505b6d04ee2d6d415b85acef81000000008310611ad3576d04ee2d6d415b85acef81000000008381611ac957611ac86124a8565b5b0492506020810190505b662386f26fc100008310611b0257662386f26fc100008381611af857611af76124a8565b5b0492506010810190505b6305f5e1008310611b2b576305f5e1008381611b2157611b206124a8565b5b0492506008810190505b6127108310611b50576127108381611b4657611b456124a8565b5b0492506004810190505b60648310611b735760648381611b6957611b686124a8565b5b0492506002810190505b600a8310611b82576001810190505b80915050919050565b60007f01ffc9a7000000000000000000000000000000000000000000000000000000007bffffffffffffffffffffffffffffffffffffffffffffffffffffffff1916827bffffffffffffffffffffffffffffffffffffffffffffffffffffffff1916149050919050565b6000604051905090565b600080fd5b600080fd5b60007fffffffff0000000000000000000000000000000000000000000000000000000082169050919050565b611c3e81611c09565b8114611c4957600080fd5b50565b600081359050611c5b81611c35565b92915050565b600060208284031215611c7757611c76611bff565b5b6000611c8584828501611c4c565b91505092915050565b60008115159050919050565b611ca381611c8e565b82525050565b6000602082019050611cbe6000830184611c9a565b92915050565b600081519050919050565b600082825260208201905092915050565b60005b83811015611cfe578082015181840152602081019050611ce3565b60008484015250505050565b6000601f19601f8301169050919050565b6000611d2682611cc4565b611d308185611ccf565b9350611d40818560208601611ce0565b611d4981611d0a565b840191505092915050565b60006020820190508181036000830152611d6e8184611d1b565b905092915050565b6000819050919050565b611d8981611d76565b8114611d9457600080fd5b50565b600081359050611da681611d80565b92915050565b600060208284031215611dc257611dc1611bff565b5b6000611dd084828501611d97565b91505092915050565b600073ffffffffffffffffffffffffffffffffffffffff82169050919050565b6000611e0482611dd9565b9050919050565b611e1481611df9565b82525050565b6000602082019050611e2f6000830184611e0b565b92915050565b611e3e81611df9565b8114611e4957600080fd5b50565b600081359050611e5b81611e35565b92915050565b60008060408385031215611e7857611e77611bff565b5b6000611e8685828601611e4c565b9250506020611e9785828601611d97565b9150509250929050565b600080600060608486031215611eba57611eb9611bff565b5b6000611ec886828701611e4c565b9350506020611ed986828701611e4c565b9250506040611eea86828701611d97565b9150509250925092565b6000819050919050565b611f0781611ef4565b8114611f1257600080fd5b50565b600081359050611f2481611efe565b92915050565b600060208284031215611f4057611f3f611bff565b5b6000611f4e84828501611f15565b91505092915050565b611f6081611ef4565b82525050565b6000602082019050611f7b6000830184611f57565b92915050565b60008060408385031215611f9857611f97611bff565b5b6000611fa685828601611f15565b9250506020611fb785828601611e4c565b9150509250929050565b600060208284031215611fd757611fd6611bff565b5b6000611fe584828501611e4c565b91505092915050565b611ff781611d76565b82525050565b60006020820190506120126000830184611fee565b92915050565b61202181611c8e565b811461202c57600080fd5b50565b60008135905061203e81612018565b92915050565b6000806040838503121561205b5761205a611bff565b5b600061206985828601611e4c565b925050602061207a8582860161202f565b9150509250929050565b600080fd5b600080fd5b7f4e487b7100000000000000000000000000000000000000000000000000000000600052604160045260246000fd5b6120c682611d0a565b810181811067ffffffffffffffff821117156120e5576120e461208e565b5b80604052505050565b60006120f8611bf5565b905061210482826120bd565b919050565b600067ffffffffffffffff8211156121245761212361208e565b5b61212d82611d0a565b9050602081019050919050565b82818337600083830152505050565b600061215c61215784612109565b6120ee565b90508281526020810184848401111561217857612177612089565b5b61218384828561213a565b509392505050565b600082601f8301126121a05761219f612084565b5b81356121b0848260208601612149565b91505092915050565b600080600080608085870312156121d3576121d2611bff565b5b60006121e187828801611e4c565b94505060206121f287828801611e4c565b935050604061220387828801611d97565b925050606085013567ffffffffffffffff81111561222457612223611c04565b5b6122308782880161218b565b91505092959194509250565b6000806040838503121561225357612252611bff565b5b600061226185828601611e4c565b925050602061227285828601611e4c565b9150509250929050565b7f4e487b7100000000000000000000000000000000000000000000000000000000600052602260045260246000fd5b600060028204905060018216806122c357607f821691505b6020821081036122d6576122d561227c565b5b50919050565b60006060820190506122f16000830186611e0b565b6122fe6020830185611fee565b61230b6040830184611e0b565b949350505050565b600081905092915050565b600061232982611cc4565b6123338185612313565b9350612343818560208601611ce0565b80840191505092915050565b600061235b828561231e565b9150612367828461231e565b91508190509392505050565b600081519050919050565b600082825260208201905092915050565b600061239a82612373565b6123a4818561237e565b93506123b4818560208601611ce0565b6123bd81611d0a565b840191505092915050565b60006080820190506123dd6000830187611e0b565b6123ea6020830186611e0b565b6123f76040830185611fee565b8181036060830152612409818461238f565b905095945050505050565b60008151905061242381611c35565b92915050565b60006020828403121561243f5761243e611bff565b5b600061244d84828501612414565b91505092915050565b600060408201905061246b6000830185611e0b565b6124786020830184611fee565b9392505050565b60006040820190506124946000830185611e0b565b6124a16020830184611f57565b9392505050565b7f4e487b7100000000000000000000000000000000000000000000000000000000600052601260045260246000fdfea26469706673582212201f417fd02ed6f68992e39add8bbbdba995f95830fd1635bf10dbcb6c672fc18964736f6c63430008180033",
  "linkReferences": {},
  "deployedLinkReferences": {}
}